:020000040000fa
:08000000105004000000000094
:020000040000fa
:10a020008f372400807f240000018800000000009a
:10a03000050007000c000700de9802000000000089
:10a040000040da000000fe004440a90080f0220039
:10a050000000e0000300320020002000a001880082
:10a060004440a80000000600c0b8200011002000f5
:10a070001600370062004000e0804800910188002f
:10a080009001ba0062004000e08048009101880021
:10a090009002ba0062004000e08048000002eb003d
:10a0a0006028e10005003a008301e9000700330061
:10a0b000038009000059eb00040037006128e1002b
:10a0c000010032000082eb000500070091018800ca
:10a0d0001001ba000200e000e6ff3a0000000500af
:10a0e000910188008002780062004000e080480012
:10a0f0003559ba008301e900080032002559ba0039
:10a100008301e900050032000400e000f4ff3200a2
:10a1100015d9ba008301e900f1ff3a0000000600fa
:10a120000a5104000000000080017800020037009e
:10a13000815978000201e9000200e000fcff3a00ca
:10a1400000000600800078001104b1000300350013
:10a150009101b10001003c000050a0000000060089
:10a160000002780003003700035a78008100e800fd
:10a170000201e9000200e00006003200914178008f
:10a180000304e000f8ff3a00005aeb000201e90086
:10a19000fdff3a0000000600800078001106b100c3
:10a1a000030035009101b10001003c000050a10006
:10a1b0000000060080007800010037000000e80081
:10a1c0001004e000fdff3a0001005000000006000e
:10a1d0008001780000017800314078000059780053
:10a1e0000004e000fcff3a000300780000000600d5
:10a1f000040037000204e00001003a0000000500fe
:10a200000000e80010417800814f5100f9ff3a004a
:10a2100000000600881f7800020478001400070080
:10a22000080040004f047800000006000000fa001b
:10a23000881f7800000478003fb99700ea81570032
:10a2400080007800a0102500100007008000780032
:10a250000000e000020035000040eb0000f4780050
:10a26000010078004f0478000080fa00000006002a
:10a270008001780002003700b15978000201e9003e
:10a280000200e000fcff3a00000006006200fa0055
:10a29000889fbe008a9fbe000004be0002057800b1
:10a2a0008300780060f92f000f004000b000070025
:10a2b00088979f0099979f000000eb00a09f9f0048
:10a2c0009a4578000b80fb000000ea00cf04de0016
:10a2d00050c2b30080cf550002003200090478005c
:10a2e000010037000904e9000800e0000b00340019
:10a2f0001f909700080178008a0078008f919700de
:10a300000300010090979f000000e00093003200de
:10a310002f98970000004400a09f9f00090545006a
:10a3200050c2b30080cf5500040032000b04e0009f
:10a33000e3ff3a002f989700890037000000eb00f8
:10a34000809f9f00f0979f00e0979f00d0979f000d
:10a35000c0979f00b0979f00c09f9f0009003700e3
:10a36000606421000080500000004000a1632100d3
:10a37000e08078004f98970001007000c09f9f0018
:10a380000a05e8001a4478008800fb006064210098
:10a3900097ff0700800078000000e000f0ff3a001f
:10a3a000a0c2b300804f54000e003a00bf8897004f
:10a3b0000180e900b08f9f0010007800b09f9f00df
:10a3c0000000e00005003d000000ea00b09f9f0093
:10a3d0004f9897000020a000c09f9f000a05e8004a
:10a3e00010003700b19f9f0009003700bf98970009
:10a3f000f0ff2700808f5000040032006a08b90087
:10a400000000410003004000b09f9f000a05e800e3
:10a410001a01fb0003fd2f0003004100e90f50006b
:10a42000f2ff3600e0c2b3009a4f10000400320081
:10a430000080eb00909f9f008a0478001c0037008a
:10a440008a04e800a0c2b300994f100007003a0048
:10a45000bf8897000180e900b08f9f00100078004e
:10a46000909f9f008a84e800110037000000eb00f5
:10a47000909f9f00090037009f989700f0ff2700ea
:10a48000808f5000040032006a08b90000004100cb
:10a4900003004000909f9f008904e8001901fb0021
:10a4a00003fd2f0003004100e90f5000f2ff3600ca
:10a4b000194478008800fb00003724004cff070097
:10a4c0000000e00002003a0000447800010037007c
:10a4d0008904e800a87f9f0080c6b300804f540025
:10a4e00004003a00994f14000a003a0066405000f8
:10a4f00006003700c0c6b300804f540005003a0084
:10a50000994f140003003a0065404000a07f9f006f
:10a510008904e8000905e800cbfb2f008f85450082
:10a520001901fb0060f92f000f0040000084e800d3
:10a530008b01780080007800080078001100070087
:10a540000000e00005003a008b0078000800780069
:10a55000500107000000e00059ff3d000080eb00c3
:10a560004f05be004f04be000080fa000000060048
:10a570000200fa00f1bf9f00010878000080fa0095
:10a5800000000600889fbe008a1f78000004780043
:10a59000010278008244780003057800e0c6b30029
:10a5a000804f5100d300320015003c006b4050003a
:10a5b000804f5100240032000a003c0070405000df
:10a5c000804f51001001320065404000804f510023
:10a5d0007400320050c2b300804f510021013a0094
:10a5e0001d01370040c6b300804f51001b003200f0
:10a5f00065404000804f51001a013a0017003700b3
:10a6000030c7b300804f5100ff00320007003c000c
:10a6100064405000804f5100620032000040e8006a
:10a62000804f51000f013a00e800370050c7b300d7
:10a63000804f51005b00320063404000804f51006a
:10a6400008013a00570037009180e900010a7800bc
:10a65000780090009171780008013700a8609000a0
:10a66000c0c6b30080cf50000a003a0094007800c2
:10a6700064805000000a78001000be004f89de00a0
:10a68000cf91de000002be00020378008203780052
:10a690001300370010c7b30080cf50000300320012
:10a6a000a0c6b30080cf500006003a0094007800a6
:10a6b00068805000000a78003002be002003be000f
:10a6c000070037001480e900000a780010007800c5
:10a6d00000027800cfa2de00050378008603780030
:10a6e000049cbe000694be00a860900080c6b30023
:10a6f00080cf50000e00320020c6b30080cf500043
:10a7000005003a000400fb00cf80de000101780064
:10a71000820178000a00370040c7b30080cf5000a4
:10a72000030032006640400080cf500006003a002f
:10a7300004007800cf80de000101780082017800fb
:10a74000009cbe000294be003800be002801be007e
:10a75000e00f5000e08f5800e00f5900e08f5900e3
:10a7600003003d0078009000d1c2b3000a0037001a
:10a77000081090000018a300030032007800900039
:10a78000b1c2b300040037000008a3005400320037
:10a790007800900001c2b300017578000000e80065
:10a7a0004e003700a8609000c0c6b30080cf5000b4
:10a7b00007003a009400780064805000000a780096
:10a7c0001002be000003eb00860378001300370080
:10a7d00010c7b30080cf500003003200a0c6b30002
:10a7e00080cf500006003a00940078006880500046
:10a7f000000a78003002be002003be0007003700c8
:10a800001480e900000a7800100078000002780047
:10a81000050020000600200007002000049cbe0068
:10a820000694be00a860900080c6b30080cf5000a0
:10a830000e00320020c6b30080cf500005003a0061
:10a840000480fb0001002000020020000300200023
:10a850000a00370040c7b30080cf50000300320029
:10a860006640400080cf500006003a0004007800a7
:10a87000010020000200200003002000009cbe0018
:10a880000294be00081090000038a30014003200ab
:10a890003800be002801be00e00f5000e08f5800d5
:10a8a000e00f5900e08f59000d00320080c7b3005f
:10a8b00080cf54000300320080c5b30080cf540025
:10a8c00007003a007800900001c3b30001757800da
:10a8d0008000e80009f578000080e8007004980026
:10a8e00078009000000045006004980089407800de
:10a8f00042003700a8609000c0c6b30080cf50006f
:10a90000250032000a003c006440500080cf500017
:10a910002800320000c0e80080cf50001400320050
:10a920006840500080cf500022003a000a003700f3
:10a9300040c7b30080cf50001e0032006640400088
:10a9400080cf50001b0032006940500080cf500083
:10a9500018003a00060037001480e900000a780069
:10a9600010007800485c90000848780045003700e7
:10a970001480e900000a780010027800680890004e
:10a98000cf80de000101780082017800009abe00cd
:10a990000292be003b0037001480e900000a7800f4
:10a9a0001001780068089000cf80de000089be00aa
:10a9b000340037001480e900000a780010007800a5
:10a9c000680c9000080878002e0037001180e9001c
:10a9d0008008780010007800cf80de000101780048
:10a9e00082017800009cbe000294be0078009000b6
:10a9f000000045006004980081c7b300080078009b
:10aa0000ee0007001f0037001480e900000a7800fc
:10aa10001000780060049800580990000200e000df
:10aa200002003d00e3fd0700090037008000eb0055
:10aa300099010700800078000000e0000300320068
:10aa40006800900000805000010037005808900016
:10aa5000100c98000b003700780090000275780009
:10aa60000600370078009000800045000904e000ef
:10aa700001003a0059c2b300894878000000e8009c
:10aa8000700498000000eb004f0578004f04be00f2
:10aa9000000006000400fa00889fbe008a9fbe00e6
:10aaa0008c1f780000047800010678007008900080
:10aab000f80090000100500088089000010050004c
:10aac0009808900001005000a80890000100500074
:10aad000b808900001005000c8089000810550009f
:10aae0000002220090bf9f0000032300a0bf9f0030
:10aaf000081090000028a30018003a000b00e000a6
:10ab0000160034008b04780009057800e28f5400a9
:10ab1000020036002a002000020037000900e00091
:10ab20000b00340058009000c80190000a01780022
:10ab3000ee80570003000100500498000000e00080
:10ab4000960032006808900000004500600c9800f4
:10ab50008a8454004240a900ebff3c007801900039
:10ab60000200e0000b00340058009000c801900083
:10ab70008c00780003000100500498000000e00001
:10ab80008600320068089000f80090000100400044
:10ab9000600c9800880c90000900e000150034005b
:10aba00009057800e28f5400020036002a002000d8
:10abb000020037000900e0000b003400580090004c
:10abc000c80190000a017800ec80570003000100e2
:10abd000500498000000e000700032006808900007
:10abe00000004500600c98008a8454004240a9008f
:10abf000ebff3c00180990000200e0000b0034005d
:10ac0000e800900058009000c80190000300010087
:10ac1000500498000000e0006000320068089000d6
:10ac20009808900001004000600c9800a80c90006b
:10ac30000900e0001500340009057800e28f540097
:10ac4000020036002a002000020037000900e00060
:10ac50000b00340058009000c80190000a017800f1
:10ac6000ec80570003000100500498000000e00051
:10ac70004a0032006808900000004500600c98000f
:10ac80008a8454004240a900ebff3c003809900040
:10ac90000200e0000d003400e80090001808900069
:10aca0008080400058009000c8019000030001001f
:10acb000500498000000e00038003200680890005e
:10acc000b808900001004000600c9800c80c90008b
:10acd0000900e0001500340009057800e28f5400f7
:10ace000020036002a002000020037000900e000c0
:10acf0000b00340058009000c80190000a01780051
:10ad0000ec80570003000100500498000000e000b0
:10ad1000220032006808900000004500600c980096
:10ad20008a8454004240a900ebff3c0008109000c8
:10ad30000028a3001b0032000b00e00019003400c3
:10ad40008b04780009057800e28f54000200360079
:10ad50002a002000020037000900e0000b00340048
:10ad600058009000c80190000a017800ee8057005a
:10ad700003000100500498000000e00007003200ca
:10ad80006808900000004500600c98008a84540018
:10ad90004240a90003003400eaff37000080eb00c6
:10ada000010037000000eb004f0678004f05be00a1
:10adb0004f04be000080fa0000000600ef02b00061
:10adc000889fbe008a9fbe008c9fbe008e1f7800a9
:10add0008006780000012000b0b79f009262210039
:10ade000c2b79f0080c5b30080cf50000e00320074
:10adf00083002000b3b79f0084612100c4b79f0087
:10ae00007740400080cf5000070032000001200052
:10ae1000b0b79f0080c7b30080cf5000020032005f
:10ae2000a2002000b2b79f003d04be002d05be0069
:10ae300040c6b30080cf50000300320065404000a0
:10ae400080cf50000b003a00e00f5400e08f5c0010
:10ae5000e00f5d00e08f5d0006003d006000b8007f
:10ae60006011b80008045000898458000a05590090
:10ae70008b855900e00f5400e08f5c00e00f5d000f
:10ae8000e08f5d0004003a005d0890008e01200014
:10ae90000000e0000c003200bfb197000302780010
:10aea000cfa2de0005037800860378000800be000c
:10aeb0000a01be002b0107004fb2970064407800e2
:10aec000d0df9f007e0120003fb097000002780095
:10aed000cfa2de0005037800860378000800be00dc
:10aee0000a01be001801070023003700bfb0970019
:10aef00001047800cfc4de00090578008a057800d7
:10af00000802be000a03be007fa897008fb097001a
:10af10001fb19700afb1970016010700d0b79f008f
:10af2000e1b79f00f2b79f0083bf9f000e07e900c3
:10af300062fc2f000f0141000e0641000802be0016
:10af40000a03be005fb09700efb097007fb1970093
:10af50008fb99700830107007faa97000000520075
:10af6000cfb09700614e78005fb09700efb09700c8
:10af70007fb197008fb99700809ebe008296be0079
:10af80003d00be002d01be00f0af9f0081b79f00c5
:10af900092b79f00a3b79f00e00f5000e08f5800ca
:10afa000e00f5900e08f5900020034000e00e0006d
:10afb000ceff3c00bfb09700e88f500010003a0071
:10afc0000d1090000038a3000d003200f70f57005d
:10afd00006003e0062fc2f000f0141008e00410080
:10afe00000c3b300914f1000050032000e07e900c6
:10aff00000c3b30063fc2f008f81410080717f008c
:10b0000078011700920e98006d00900063fc2f00ed
:10b010008f8141008e80410095fc07001d09900042
:10b020005d089000800f510006003d0002005000b6
:10b03000800e98000d1090000040a100801698002e
:10b040000f0037000000e0000d003d000d109000e3
:10b0500074006000f00f500009003a007d08900075
:10b06000fd009000010050008d089000010050008c
:10b07000020050004240a90001003400800e9800f8
:10b080004f0778004f06be004f05be004f04be00bc
:10b09000ef02b100000006000600370090cf10005c
:10b0a00002003a0000017800040037000000e800c8
:10b0b0000201e9000200e000f8ff3a000200780017
:10b0c00000000600839f68000100e00002003d00d0
:10b0d00060001000e08018000300e00002003d0066
:10b0e00060011100e0811900050007004f00e00039
:10b0f00002003b0060001000e08018000000060025
:10b100006022b800060220000000d0008180d2003a
:10b110000482d2008582d2000000a0000202520008
:10b1200083825a00030031000202420083824a00f7
:10b130000000a1000603e900f3ff3a00000006004a
:10b14000881f7800000478005001be004000be0057
:10b1500004004000858048000601490087814900bd
:10b16000009cbe000294be000400e1000588e100de
:10b170000690e1000798e1000200310068004400f9
:10b180001008e8004f047800000006001000fa00e4
:10b19000889fbe008a9fbe003004be002005be000e
:10b1a000c8b79f00d9b79f00eab79f00fbb79f00c1
:10b1b0000404540085845c0006055d0087855d00fd
:10b1c00088bf9f0099bf9f00aabf9f00bbbf9f0081
:10b1d0000898be000a98be008000eb004fb49700ac
:10b1e000dfb497006fb59700ffb597000440e1000a
:10b1f00005c8e10006d0e10007d8e10001003100f8
:10b2000011002000108810004f05be004f04be0042
:10b210000080fa00000006001200fa00889fbe00bd
:10b220008a9fbe008c1f78000205be000004be008d
:10b23000f4b79f0085bf9f0096bf9f00a7bf9f00e8
:10b240000000eb00e0b79f00d0b79f00c0b79f00a1
:10b25000b0b79f00a0b79f0000067800dfb097004e
:10b260006fb09700000140000000e0000a003d00c0
:10b270008c00070001003d00120020009200070032
:10b2800001003d0012002000970007007c8057005d
:10b29000abff0700090037008200070001003d00f6
:10b2a000120020008800070001003d00120020006d
:10b2b0008d0007007c805700b4ff07006fb2970035
:10b2c0000400e0000700350010002000010020000d
:10b2d0006011b80008047000898470000a057100cc
:10b2e0008b8571000c06e800f0032000800f5600eb
:10b2f000daff34000400e00006003d007fb2970052
:10b300008fba97001fbb9700afbb97007c80570098
:10b310008bff07006fa897000000e00004003a00d0
:10b320002fb49700bfb497004fb59700dfb59700d3
:10b33000890007004f0678004f05be004f04be008d
:10b340000080fa0000000600881f78001800200026
:10b35000881f7800b0ff07008f87e9004f0478004e
:10b3600000000600801feb00abff07008f87e9009d
:10b3700000000600889fbe008a9fbe008c1f7800d8
:10b380006e00070005003d002f00070007003d008c
:10b390003d0007000006eb00040037003f000700f7
:10b3a00002003d00300007001c0020006a0007007a
:10b3b000e5ff07000203be000002be000c00e00033
:10b3c00001003200280007000400be000601be0094
:10b3d0004f0678004f05be004f04be000000060077
:10b3e000889fbe008a9fbe008c1f78005300070014
:10b3f00003003d001400070006003d000400370074
:10b400002600070003003d006000b8006011b8008e
:10b410001d00070050000700d2ff07000203be0016
:10b420000002be000c00e000010032000e00070028
:10b430000400be000601be004f0678004f05be00a6
:10b440004f04be00000006006000b8006011b800a4
:10b4500008045000898458000a0559008b8559005a
:10b460001c002000030037006000b8006011b80025
:10b4700005003700e00f5200e08f5a00e00f5b003c
:10b48000e08f5b0000000600040250008582580037
:10b490000603590087835900000006000006eb00f0
:10b4a000f4ff37004f08de0000007100c0b79f00b6
:10b4b00001804000b0b79f000001eb00afb09700e3
:10b4c0000100e0000000060002007000b0b79f001d
:10b4d00001804000a0b79f000001eb009fb09700e3
:10b4e0000100e0000000060002007000a0b79f000d
:10b4f000018040000fb29700cf20de0001007000f5
:10b5000090b79f0004024200130007004f18de00ae
:10b510000002720084b79f000804440089844c0034
:10b520000a054d008b854d005fb29700efb2970082
:10b530007fb397008fbb9700000006000205be0096
:10b540000004be00e00f5000e08f5800e00f5900eb
:10b55000e08f5900000006000800be000a01be008e
:10b5600000000600889fbe008a9fbe008c1f7800e6
:10b570000205be000004be000006eb00e00f500014
:10b58000e08f5800e00f5900e08f590007003d00a0
:10b590006000b8006011b8000804500089845800a9
:10b5a0000a0559008b8559001c002000e00f52004d
:10b5b000e08f5a00e00f5b00e08f5b0002003d006f
:10b5c0000f0007000c00a2000800be000a01be0028
:10b5d000120007000203be000002be000c00e000e3
:10b5e00001003200060007000400be000601be0094
:10b5f0004f0678004f05be004f04be000000060055
:10b600006000b8006011b800040250008582580044
:10b61000060359008783590000000600889fbe007a
:10b620008a9fbe008c9fbe000404b8000506b800c7
:10b630008904460060854e000606b8000a054600eb
:10b64000e0854e000706b8008b054600040eb800e2
:10b65000890446000a854e00e0854d00050eb800bd
:10b660000a0546008b854e00060eb8008b05460085
:10b670000416b8000a0546008b854e000516b80072
:10b680008b054600041eb8008b0546000800be006e
:10b690000a01be004f06be004f05be004f04be00ab
:10b6a000000006000000fa0070d5bf006140600095
:10b6b0000004e00002003a00dc02a9001b00370091
:10b6c00000c8bf00ea4f50000900360070d5bf0027
:10b6d000614060000004e000050032007015a90020
:10b6e0000040eb0000e8b700dc02a9000f003700c3
:10b6f000dcc2bf000004a200614060006140600045
:10b700006140600061416000c12d200091407800df
:10b71000e0cfb30000c0600002407000dce2b70080
:10b7200000c8bf000040e80000e8b7000080fa0051
:10b73000000006000200fa00004f78009e407800ea
:10b7400061c06000c700dd00c4c2bf000074a1007a
:10b7500001407000c4e2b7000080fa00000006005b
:10b760000400fa00004f78001e80fb0010079800cc
:10b770001e009000e10f50000d0032001e009000ee
:10b78000e20f500001003200120037006c35a900b2
:10b79000e982a80000000000000000000000000096
:10b7a0000000000000000000e9c2a80011003700fe
:10b7b0006c35a800e982a90000000000000000002c
:10b7c000000000000000000000000000e9c2a90025
:10b7d000080037006c35a800e982a80000000000ce
:10b7e0000000000000000000000000000000000059
:10b7f000e9c2a9000080fa00000006000000fa007b
:10b8000080ad8000104078000080fb000080fa00ce
:10b81000000006000000fa0080ad80000000e80093
:10b820001040780088f5b70088d5bf000080fb0085
:10b830000080fa00000006000800fa004047980067
:10b840006000b800008fbe004e4090000080fb00fa
:10b85000300798003e009000ee0f5000400032008c
:10b86000be009000ee8f500011003c003e009000a2
:10b87000eb0f50002e003200be009000eb8f500006
:10b8800004003c003e009000ea0f5000150032001a
:10b8900046003700be009000ec8f500028003200b8
:10b8a0003e009000ed0f5000290032003f003700ad
:10b8b000be009000f08f5000310032003e0090003a
:10b8c000f00f50002a003500be009000f18f5000ac
:10b8d0002f0032003e009000f20f50003000320086
:10b8e000320037006000b800a0ab8800b1ab880020
:10b8f0000000eb00c0ab88000000eb00d0ab88007c
:10b900006000b800e0ab8800f1ab88000000eb00fd
:10b9100000ac88000000eb0010ac88000000eb00d9
:10b9200020ac88000000eb0030ac88001f0037001e
:10b93000a0ab8000b1ab8000008fbe001b003700c1
:10b94000c0ab800001002000008fbe001700370050
:10b95000d0ab800001002000008fbe001300370034
:10b96000e0ab8000f1ab8000008fbe000f0037001d
:10b9700000ac800001002000008fbe000b003700eb
:10b9800010ac800001002000008fbe0007003700cf
:10b9900020ac800001002000008fbe0003003700b3
:10b9a00030ac800001002000008fbe001e00be00f1
:10b9b0000080fa00000006000200fa00881f7800ec
:10b9c0000040eb00004f780080ad80001040780010
:10b9d00089f5b7009858210018447800380207000c
:10b9e000804f540030003a00e2ab8000f3ab80009f
:10b9f000f03f2800717d2100800f5100818f590098
:10ba000006003e00e0ab8000f1ab8000610040002a
:10ba1000e0804800e0ab8800f1ab88000603070037
:10ba20008040780000c8b30080cf50001b003a006f
:10ba3000dd0207000004e00015003200a602070046
:10ba4000e14f40000f003a00780207000004e000d8
:10ba50000300320010c0b300004f7800140037001c
:10ba6000c0ab8000e10f400003003200c0ab80009b
:10ba70000000e800c0ab880030c8b300004f780079
:10ba80000b00370020c8b300004f780008003700d3
:10ba900040c8b300004f78000500370050c8b3001d
:10baa000004f78000200370010c8b300004f780044
:10bab00010c0b3009e4f10001400320020c8b30025
:10bac0009e4f10000600320030c8b3009e4f100099
:10bad0000300320050c8b3009e4f100001003a002e
:10bae0007015a8006c15a90010c8b3009e4f100077
:10baf00006003200d0ab8000e10f400003003200ae
:10bb0000d0ab80000000e800d0ab88001e80fb00b6
:10bb10004f0478000080fa00000006000200fa00de
:10bb20000000eb00000f780069d5bf0061406000a5
:10bb30000004e000430132006cd5bf0062406000a9
:10bb40000004e000a40032006cd5bf00614060003a
:10bb50000004e000a0003a006bd5bf000040e80000
:10bb60006bf5b7006bd5bf00e14f50009800360071
:10bb70000040eb006bf5b7006ad5bf000040e8005d
:10bb80006af5b70032c2bf00614060000004e00007
:10bb90006a0032003202a900c4e2a8000040eb00b3
:10bba0006af5b700b0118000000f780068d5bf00bb
:10bbb0000080fb008000780070ad80008080400035
:10bbc0001e0078004800de00804878008256210080
:10bbd000124178000280fb008000780080ad800078
:10bbe000808040001e007800804878000240e80015
:10bbf00068f5b70032c2bf00614060000004e00099
:10bc0000170032003202a9000040eb006af5b700cd
:10bc1000b0118000000f780068d5bf000080fb00e5
:10bc20008000780070ad8000808040001e007800a9
:10bc30004800de00804878008256210012417800da
:10bc40000280fb008000780080ad80008080400092
:10bc50001e007800804878000240e80068f5b700d0
:10bc600032c2bf00614060000004e00017003200f3
:10bc70003202a9000040eb006af5b700b011800065
:10bc8000000f780068d5bf000080fb0080007800be
:10bc900070ad8000808040001e0078004800de000b
:10bca0008048780082562100124178000280fb0013
:10bcb0008000780080ad8000808040001e00780009
:10bcc000804878000240e80068f5b70032c2bf0043
:10bcd000614060000004e0009c0032003202a900d4
:10bce0000040eb006af5b700b0118000000f78004b
:10bcf00068d5bf000080fb008000780070ad800038
:10bd0000808040001e0078004800de0080487800f7
:10bd100082562100124178000280fb0080007800ea
:10bd200080ad8000808040001e0078008048780050
:10bd30000240e80068f5b700840037006ad5bf000c
:10bd4000e34f50008100360030c0b3006af5b70001
:10bd50006cd5bf00614060000004e0007b003a0049
:10bd600068d5bf000004e00078003200a2ab80007c
:10bd7000b3ab8000f03f2800717d2100800f51009f
:10bd8000818f590006003e00a0ab8000b1ab80005f
:10bd900061004000e0804800a0ab8800b1ab8800a3
:10bda00080ad8000904078006ed5bf0080cf5000fd
:10bdb00004003a006c15a80068d5bf000080fb00a5
:10bdc00060ac88000040eb0068f5b7005f0037000a
:10bdd000c4e2a9005d0037006cd5bf00644060007c
:10bde0000004e0005900320033c2bf00614060002f
:10bdf0000004e00055003200f15621009140780027
:10be000093d5bf0080cf500024003100c4e2a800c9
:10be10006fd5bf000080fb008000780070ad80000f
:10be200000804000104078000080fb004801dd00e9
:10be30006fd5bf000080fb008000780080ad8000df
:10be400000804000104078000080fb0000004100ae
:10be5000a01188006fd5bf000080fb008000780033
:10be600080ad8000808040000040eb00804878007a
:10be70006fd5bf000080fb008000780070ad8000af
:10be8000808040000040eb00804878006fd5bf0004
:10be90000040e8006ff5b7002c003700c4e2a900ad
:10bea0000040eb006ff5b7000040eb0068f5b7000d
:10beb0006c15a900b01180006af5b700b0118000c0
:10bec0006af5b700b01180006af5b700b0118000c4
:10bed0006af5b7000000eb00801188000000000048
:10bee000000000000000eb0090118800000000003e
:10bef0000000000060002c0080118800000000009d
:10bf00000000000000512000901188000000000097
:10bf1000000000000040eb006af5b7006c55a90076
:10bf20006c35a8003202a9006c35a800e982a9008e
:10bf30000000000000000000000000000000000001
:10bf40000000000000000000e9c2a9006cd5bf009d
:10bf5000624060000004e0003900320032c2bf00dd
:10bf6000644060000004e00004003a0032c2bf00f8
:10bf7000624060000004e000310032000040eb004d
:10bf80006ff5b7006c55a9000000eb008011880028
:10bf900000000000000000000000eb00901188008d
:10bfa000000000000000000060002c0080118800ec
:10bfb00000000000000000000051200090118800e7
:10bfc00000000000000000000040eb0068f5b70032
:10bfd0006c15a900b01180006af5b700b01180009f
:10bfe0006af5b700b01180006af5b700b0118000a3
:10bff0006af5b7000040eb006af5b7006c35a800a1
:10c000003202a9006c35a800e982a90000000000f6
:10c010000000000000000000000000000000000020
:10c0200000000000e9c2a90010ad8000e10f40004f
:10c030000300320010ad80000000e80010ad880061
:10c0400098fd07000080fa00000006000600fa00d4
:10c0500020479800314798000040eb00004f7800df
:10c060002e409000e14f500003003a0010c0b30092
:10c07000004f78002a00370060ad80000000e80023
:10c0800060ad880061ad80003e409000804878003f
:10c0900090ab80004800de00614060008040780086
:10c0a00090ab80004900de006140600000c0680085
:10c0b0008040780090ab80004a00de006140600064
:10c0c00080c0680090ab80004b00de0061406000e3
:10c0d00080c0680090ab80004c00de0061406000d2
:10c0e00080c0680090ab80004d00de0061406000c1
:10c0f00080c0680090ab80004e00de0061406000b0
:10c1000080c0680090ab80004f00de0000c0680077
:10c11000004f780060ad80000000e90060ad88004d
:10c120002e409000e24f500008003a000040eb0023
:10c13000404798001e04e00002003a0010c0b3001f
:10c14000404798004e409000004f78001e80fb0052
:10c150000080fa00000006000000fa006915a9003e
:10c160000dcbbf000004e00053003200e5c2a9007f
:10c1700000000000000000000000000000000000bf
:10c1800000000000e582a90000000000000000009f
:10c1900000000000000000000000000010c0b3001c
:10c1a0006ffd07000000eb00801188000000eb002d
:10c1b0009011880031e2a80032a2a9000dcbbf0087
:10c1c000e14f500003003a0010082000c011880021
:10c1d000050037000dcbbf00e24f500002003a00cf
:10c1e00000042000c01188000040eb006df5b7008e
:10c1f0000ecbbf006ef5b7003062a9003342a80035
:10c200003202a90097c0a90087e0a90097e0a90021
:10c21000b0118000a0118800b0118000a01188002a
:10c22000b0118000a0118800b0118000a01188001a
:10c230000000eb00a01188003182a90031a2a90002
:10c240003162a9001123200091407800c0cfb300d3
:10c2500000c0600031e2b70030e2a90030c2a9009e
:10c260003002a90030c2bf006040b30030e2b70026
:10c2700032c2bf00f043b20032e2b70030a2a900e0
:10c28000c0e2a90000000000000000000000000063
:10c290000000000000000000d802a900c4e2a800cd
:10c2a000dc02a9000040eb00360007004d0007004b
:10c2b0007035a9006915a8000080fa00000006008a
:10c2c0000000fa006ed5bf000080fb000080fa007d
:10c2d000000006000a00fa0030079800014f98009d
:10c2e00000c0eb005047980000c0eb0040479800aa
:10c2f000160037003e009000904078005e409000ad
:10c3000000c068000080fb00100798003e0090000d
:10c310000000e800300798009e009000c0e7280069
:10c32000e14078004e40900000c0680050479800ff
:10c330009e009000c0f728006141780042479800b5
:10c340000e4890000040e900004f98000e48900011
:10c350000004e000e7ff3a005e4090000080fb0030
:10c36000000f78001e0078004800dd00000f780004
:10c370004e4090000080fb001e0070000080fa001c
:10c38000000006000400fa00204798000040eb007f
:10c39000004f78002e4090000004e00002003a00b8
:10c3a000e0cfb300204798000040eb00004f78003a
:10c3b000070037001e80fb008000780080ad800001
:10c3c000808040000040eb00804878001e4fe8006d
:10c3d0002e4090009e4f1000f6ff39000080fa00ba
:10c3e000000006000200fa000040eb00004f780059
:10c3f0000040eb00004f7800070037001e80fb0074
:10c400008000780070ad8000808040000040eb002c
:10c41000804878001e4fe800d0cfb3009e4f100038
:10c42000f6ff36000080fa00000006000600fa0061
:10c430000000eb00100798000040eb00004f780070
:10c4400060ac800000cfe9009e407800d0922000d0
:10c45000a0ff0700100798000000eb0080ac8800e8
:10c460001e80fb008000780080ad800000804000ce
:10c47000104078000080fb004800dd0080ac8800a0
:10c4800082ac80001e4fe8001e80fb008000780018
:10c4900080ad800000804000104078000080fb00ec
:10c4a0000000410080ac880081ac80001e0090003c
:10c4b000808f500003003a001000200020079800f1
:10c4c000020037000000eb00200798002e009000cb
:10c4d0000080fa00000006000600fa00881f7800bd
:10c4e0000040eb00204798000040eb001047980008
:10c4f0000040eb00004f780060ac8000004f7800f7
:10c500000040eb0020479800160037002e409000b6
:10c510000080fb008000780070ad8000008040004b
:10c52000104478002e4090000080fb0080007800ce
:10c5300080ad800000804000904078006dd5bf0045
:10c54000c2fe0700804f540003003a001e409000d6
:10c550000040e800104798002e4090000040e8009e
:10c56000204798002e4090009e4f5000e7ff390072
:10c570009e4090002e40900080cf500003003a0073
:10c58000f00f200020079800030037001e409000a5
:10c590000080fb00200798002e0090004f047800d8
:10c5a0000080fa00000006000200fa0088d5bf00f3
:10c5b000f04f500012003a0060ac8000e90f5000cc
:10c5c0000c00360060ac8000e900500033c9bf00a9
:10c5d0000080fb00808f500003003a001000200014
:10c5e000000f7800110037000000eb00000f78000a
:10c5f0000e0037000000eb00000f78000b00370042
:10c6000060ac8000e80f50000300320060ac800096
:10c61000e40f500003003a0010002000000f7800e3
:10c62000020037000000eb00000f78001e007800c9
:10c630000080fa00000006000400fa000040eb0051
:10c64000004f780073fc0700004f78001e80fb004d
:10c6500063005000100798001e009000ee0f50007d
:10c660000b003e00100020001e0190008200dd0043
:10c67000b0022400008060000000e00001003a00e9
:10c680000300370000c8b300004f780002003700f5
:10c6900000c0eb00004f78001e80fb000080fa0015
:10c6a000000006001400fa00881f78000040eb002c
:10c6b000204f98000040eb00104f98000040eb0026
:10c6c000004f98000000eb00300798000000eb00de
:10c6d000200798006000b800008fbe000040eb000b
:10c6e00028ff070088ad8000f5fe0700004c7800a9
:10c6f00080ad80008000e80088d5bf0080487800c9
:10c7000088d5bf000080fb006101b9000080eb000c
:10c710008080eb000201400083814800020f9800f6
:10c72000130f980000012000010020000e09900066
:10c730009e099000800f5100818f590075023e00c4
:10c740000e0890009e089000006001001000370065
:10c750000f0037004f0037004e0037006d023700e2
:10c7600014013700c7013700d001370069023700d4
:10c77000680237006702370066023700650237003b
:10c780006402370063023700620237003602370066
:10c7900070ac800047030700204f980080ad8000f8
:10c7a0000080e800ae489000014878001e489000e4
:10c7b0000040e800104f980051ac800070ac800041
:10c7c000008040003007980088d5bf00e14f50003e
:10c7d00003003a000000eb00200798000500370036
:10c7e00088d5bf00e24f500002003a000000eb0085
:10c7f000200798002e4890008080fb002e009000bb
:10c800004300de000000e800808f500011003e0071
:10c81000be0090002e009000808f50000d003e0062
:10c8200088d5bf00e14f500003003a00805a210034
:10c830004d03070002003700a05a21004a030700f9
:10c840001e489000ae48900001404000104f9800f4
:10c850000c00370051ac80002e009000808f5000fb
:10c860000300360020c0b300780207000200370042
:10c8700030c0b300750207001e4890000040e80079
:10c88000104f98001e48900000c0e800104f98001c
:10c890002002370070ac800000404000204f98001c
:10c8a00080ad80000080e8002e49900002487800aa
:10c8b0001e4890000040e800104f980051ac8000e6
:10c8c00070ac8000008040003007980088d5bf0021
:10c8d000e34f500086003a0050ac8000e107290089
:10c8e00091007800810f500018003e00e0072900f9
:10c8f0009001780023079800be0090002e00900061
:10c90000808f50000e003e0050ac800090ad88003b
:10c91000a903070090ad800000004000800078006f
:10c920008018210000804000450307008040780007
:10c930001e48900001404000104f98008b003700c7
:10c9400020c0b300004f98008800370051ac800031
:10c95000700c2000808f50001e00360051ac80000b
:10c96000100d2000808f50001a003e00e0072900c3
:10c970009000900021079800be0090002e009000cb
:10c98000808f500010003e0051ac800080f32f00db
:10c990000080400090ad8800a204070090ad8000a8
:10c9a00000004000800078008018210000804000d6
:10c9b00023030700804078001e489000014040009b
:10c9c000104f98006900370020c0b300004f980056
:10c9d0006600370051ac8000301f2000808f50006f
:10c9e0001e00360051ac800090232000808f500044
:10c9f0001a003e00e007290020019000220798005d
:10ca0000be0090002e009000808f500010003e006d
:10ca100051ac8000c0e02f000080400090ad880045
:10ca20003004070090ad80000000400080007800d6
:10ca3000801821000080400001030700804078003a
:10ca40001e48900001404000104f980047003700fa
:10ca500020c0b300004f98004400370051ac800064
:10ca600070252000808f50001e00360051ac8000e1
:10ca7000d0292000808f50001a003e00e0072900d6
:10ca8000b001900023079800be0090002e00900097
:10ca9000808f500010003e0051ac800080da2f00e3
:10caa0000080400090ad88003604070090ad800003
:10cab00000004000800078008018210000804000c5
:10cac000df020700804078001e48900001404000cf
:10cad000104f98002500370020c0b300004f980089
:10cae0002200370020c0b300004f98001f0037001d
:10caf00088d5bf00e44f50001c003a0051ac8000c4
:10cb0000e0838400808f500016003100e0838400b1
:10cb100020079800be0090002e009000808f5000eb
:10cb20000d003e0050ac800090ad880090ad8000bc
:10cb30000000400080007800800921000080400053
:10cb4000bf020700804078001e489000014040006e
:10cb5000104f98000500370020c0b300004f980028
:10cb60000200370020c0b300004f98000e4890002c
:10cb70000004e0000b0032000e489000e24f50002d
:10cb800003003a0020c0b300b001070005003700e1
:10cb90000e489000e34f500002003a0030c0b3004e
:10cba000aa0107001e48900000c0e800104f98003e
:10cbb0005801370050ac8000e1072900910078004f
:10cbc000810f50002500310071ac800050ac800016
:10cbd0008c0307000004e0001a00320080ad8000e2
:10cbe0008000e80060c0b3008048780080ad80001d
:10cbf0008080e80050ac80004800de00804878006b
:10cc000080ad8000e300400050ac80008048780098
:10cc100080ad8000e400400070ac80004800de0081
:10cc20008048780080ad8000e500400070ac800056
:10cc3000804878001e48900066404000104f9800e1
:10cc40003401370030c0b300800107001e48900057
:10cc500063404000104f98002e01370051ac800017
:10cc6000700c2000808f50002a00360050ac8000ed
:10cc7000e107290091009000810f5000250031004c
:10cc800071ac800050ac8000fc0307000004e000a1
:10cc90001a00320080ad80008000e80060c0b30060
:10cca0008048780080ad80008080e80050ac800033
:10ccb0004800de008048780080ad8000e30040003e
:10ccc00050ac80008048780080ad8000e4004000d7
:10ccd00070ac80004800de008048780080ad8000a5
:10cce000e500400070ac8000804878001e4890004d
:10ccf00066404000104f98000601370030c0b30076
:10cd0000520107001e48900063404000104f9800f9
:10cd10000001370051ac8000301f2000808f500090
:10cd20002a00360050ac8000e1072900a1009000e5
:10cd3000810f50002500310071ac800050ac8000a4
:10cd4000fd0307000004e0001a00320080ad8000ff
:10cd50008000e80060c0b3008048780080ad8000ab
:10cd60008080e80050ac80004800de0080487800f9
:10cd700080ad8000e300400050ac80008048780027
:10cd800080ad8000e400400070ac80004800de0010
:10cd90008048780080ad8000e500400070ac8000e5
:10cda000804878001e48900066404000104f980070
:10cdb000d800370030c0b300240107001e4890009f
:10cdc00063404000104f9800d200370051ac800003
:10cdd00070252000808f5000ce00360050ac8000bf
:10cde000e1072900b1009000810f5000c900310017
:10cdf00071ac800050ac8000fc0307000004e00030
:10ce00001a00320080ad80008000e80060c0b300ee
:10ce10008048780080ad80008080e80050ac8000c1
:10ce20004800de008048780080ad8000e3004000cc
:10ce300050ac80008048780080ad8000e400400065
:10ce400070ac80004800de008048780080ad800033
:10ce5000e500400070ac8000804878001e489000db
:10ce600066404000104f9800aa00370030c0b30061
:10ce7000f60007001e48900063404000104f9800e5
:10ce8000a400370080ad80008000e80070c0b300cf
:10ce90008048780010c0b300ec0007001e489000e6
:10cea00000c0e800104f98009a00370080ad800065
:10ceb0008000e80080c0b3008048780080ad80002a
:10cec0008080e80050ac80004800de008048780098
:10ced00080ad8000e300400050ac800080487800c6
:10cee00051ac8000710798007e019000e10f510065
:10cef00014003200fe019000e18f5100040039005f
:10cf00007e009000e40f50003400320037003700fc
:10cf100080ad8000e400400070ac80004800de007e
:10cf20008048780080ad8000e500400070ac800053
:10cf3000804878001e48900066404000104f9800de
:10cf400074003700a0c0b3003bfa070070d5bf00e3
:10cf5000624060000004e0001c003a0080ad8000e8
:10cf60008000e80080c0b3008048780080ad800079
:10cf70008080e80050ac80004800de0080487800e7
:10cf800080ad8000e300400050ac80008048780015
:10cf900080ad8000e400400070ac80004800de00fe
:10cfa0008048780080ad8000e500400070ac8000d3
:10cfb000804878001e48900066404000104f98005e
:10cfc0001e489000760007002e05070062fc07004f
:10cfd0001100200061079800520037007035a8004a
:10cfe0000001eb00620798004e00370050ac800053
:10cff00011fa0700008fbe001e00be004008de00d0
:10d00000010020003007980080ad8000e40040005f
:10d010003e0090004800de008048780080ad80002f
:10d02000e50040003e009000804878009e017800b6
:10d030003307980080ad8000e60040003e0090007d
:10d040004800de008048780080ad8000e7004000a6
:10d050003e009000804878001e48900068404000e4
:10d06000104f98002b00370080ad80008000e80052
:10d0700010c1b3008048780080ad80008080e80057
:10d0800080c0b3008048780080ad8000e30040009d
:10d090000040eb008048780080ad8000e400400054
:10d0a00010c0b3008048780080ad8000e5004000eb
:10d0b00040c1b3008048780080ad8000e6004000a9
:10d0c000a0c9b3008048780080ad8000e700400030
:10d0d00010c0b3008048780080ad8000e8004000b8
:10d0e000a0c1b3008048780080ad8000e900400016
:10d0f000c0c0b3008048780080ad8000ea004000e6
:10d100000040eb00804878001e4890006b404000d3
:10d11000104f98001e4890002100070010002000ca
:10d12000600798006e0090004f0478000080fa00bd
:10d13000000006000400fa00881f780020479800cd
:10d140000040eb00004f78000040eb00004f7800fb
:10d150000d0037001e80fb008000780070ad80005d
:10d16000008440001e80fb008000780080ad8000bd
:10d1700000804000904078006dd5bf00b3fb0700f1
:10d18000004c78001e4fe8002e4090009e4f10008b
:10d19000f0ff39004f0478000080fa00000006001c
:10d1a0000400fa00881f7800204798000000eb0078
:10d1b000000f780088ad800041fc0700004c78002b
:10d1c000ae409000d092200042fc0700000f780093
:10d1d0002e4090000080fb008000780080ad800031
:10d1e000808040001e0078004800de008048780003
:10d1f0002e4090000040e800204798002e4090000c
:10d200000080fb008000780080ad800080804000be
:10d210001e007800804878002e4090000040e80012
:10d22000204798002e409000c2ff070020c0b300a6
:10d230004bf907002e40900093f5b7006c55a800fd
:10d240004f0478000080fa00000006000200fa0097
:10d25000004f780080ad80000001e80080ad8000c4
:10d260000000e8009040780000c8b30000c07000e3
:10d270000049780080ad80000080e8001e487800fa
:10d280007015a8000080fa00000006000000fa00f7
:10d290000040eb003bfc070080ad80008000e80010
:10d2a00010c0b3008048780080ad80008080e80026
:10d2b000c0c0b3008048780080ad8000e30040002b
:10d2c000a0c0b3008048780080ad8000e40040003a
:10d2d000b0c0b3008048780080ad8000e500400019
:10d2e000c0c0b3008048780080ad8000e6004000f8
:10d2f000d0c0b3008048780080ad8000e7004000d7
:10d30000e0c0b3008048780080ad8000e8004000b5
:10d31000f0c0b3008048780080ad8000e900400094
:10d3200000c1b3008048780080ad8000ea00400072
:10d3300010c1b3008048780080ad8000eb00400051
:10d3400020c1b3008048780080ad8000ec00400030
:10d3500030c1b3008048780080ad8000ed0040000f
:10d3600070c3b3008048780080ad8000ee004000bc
:10d3700050c5b30080487800f0c0b30088ff0700b4
:10d380000080fa00000006000000fa0069d5bf0026
:10d39000614060000004e000440032006cd5bf0032
:10d3a000624060000004e00014003200e9c2bf00e7
:10d3b000704060000004e00006003200e982a9002d
:10d3c000000000000000000000000000000000005d
:10d3d00000000000e9c2bf000044b2000004e00009
:10d3e00006003200e9c2a9000000000000000000b1
:10d3f0000000000000000000000000006cd5bf002d
:10d40000614060000004e000280032006cd5bf00dd
:10d41000624060000004e0002400320066f907006a
:10d4200092f5b70092d5bf00e14f500018003a00c6
:10d430000040eb0092f5b7002b0007003a00070010
:10d4400070d5bf00624060000004e00001003a00b7
:10d4500094fc070070d5bf00624060000004e0004b
:10d460001200320088d5bf00e84f500005003a0096
:10d4700050ac8000e10f500002003a0089fc070028
:10d480000a0037000040eb00befb07000700370032
:10d49000215921009140780050c8b30080cf50003e
:10d4a00002003a0010c0b30068ff07000080fa00d5
:10d4b000000006000400fa00100798001e0090000b
:10d4c0004300de00004f78001e00900067006000ff
:10d4d0000000e000010032001e4fe8001e80fb004b
:10d4e0000080fa00000006000000fa0080ad800015
:10d4f0000080e800104078000080fb004800dd005c
:10d5000050ac880051ac800080ad800063004000ca
:10d51000104078000080fb000080400050ac880084
:10d520000080fa00000006000000fa0080ad8000d4
:10d5300064004000104078000080fb004800dd00df
:10d5400070ac880071ac800080ad80006500400048
:10d55000104078000080fb000080400070ac880024
:10d560000080fa00000006000600fa00100798008c
:10d570000040eb00004f780050ac80008000780045
:10d580001e00900001004000100798000040eb00d2
:10d59000004f7800240037001e00900010407800f3
:10d5a000404798004e4090000004e0000200320026
:10d5b00010c0b300404798004e4090009e0090007d
:10d5c0008100e800110798000004e0001500320017
:10d5d0001e80fb004300de00004178000280fb005b
:10d5e0008000780080ad800000804000e3014000b2
:10d5f0000280fb008000780080ad80000080400049
:10d600006300400010407800004178001e80fb005d
:10d61000e7006000100020000100dd000040710004
:10d62000804978001e4fe8009e80fb0070ac8000af
:10d63000808f5000d8ff39000080fa0000000600fb
:10d640000400fa00100798000040eb001047980013
:10d650000040eb00004f78000040eb0010479800be
:10d660001a0037001e80fb008000780080ad80002b
:10d6700000804000e30040001e0090001000780091
:10d680004800de00804878001e80fb0080007800a3
:10d6900080ad800000804000e40040001e0090004b
:10d6a00010007800804878001e0090000080e8009c
:10d6b000100798001e40780000c0e800004f780076
:10d6c0001e4090000040e800104798001e40900067
:10d6d0008080fb0070ac8000808f5000e1ff39003b
:10d6e0001e4090000080fb00000040000080fb0016
:10d6f0000080fa00000006000000fa0080182100f7
:10d70000020f20008000eb0087f207000080fa0083
:10d71000000006000000fa00c09380000000e00056
:10d7200023003a009e13070050002000c093880099
:10d7300050ae8000c084880060ae8000d084880035
:10d7400070ae8000e084880080ae8000f0848800a5
:10d7500090ae800000858800a0ae80001085880013
:10d76000b0ae800020858800c0ae80003085880083
:10d77000d0ae800040858800e0ae800050858800f3
:10d78000f0ae80006085880000af80007085880062
:10d7900010af80008085880020af800090858800d1
:10d7a00030af8000a085880040af8000b085880041
:10d7b0000080fa00000006000000fa00ceff07001b
:10d7c00008cbbf000080fb00408c8800e6cabf0089
:10d7d0000080fb00508c8800cecabf000080fb0098
:10d7e000608c8800e9cabf000080fb00708c880054
:10d7f00009cbbf000080fb00808c88000bcbbf00f2
:10d800000080fb00908c8800f4cabf000080fb0001
:10d81000a08c8800ddcabf000080fb00b08c8800af
:10d82000decabf000080fb00c08c8800dfcabf00da
:10d830000080fb00d08c8800e0cabf000080fb00a5
:10d84000e08c8800e1cabf000080fb00f08c8800fb
:10d85000e2cabf000080fb00008d88009ecbbf00a5
:10d860000080fb00108d88000acbbf000080fb0009
:10d87000208d88000ccbbf000080fb00308d88001d
:10d88000e3cabf000080fb00408d8800eacabf00e9
:10d890000080fb00508d8800d0568000608d88008d
:10d8a000a2cbbf000080fb00708d8800a3cbbf001f
:10d8b0000080fb00808d8800d5cabf000080fb007f
:10d8c000908d8800ebcabf000080fb00a08d88000f
:10d8d000eccabf000080fb00b08d8800f1cabf0019
:10d8e0000080fb00c08d8800f2cabf000080fb00f2
:10d8f000d08d8800f0cabf000080fb00e08d88005a
:10d900000dcbbf000080fb00f08d88000ecbbf0068
:10d910000080fb00008e8800f5cabf000080fb007d
:10d92000108e8800f6cabf000080fb00208e8800a1
:10d93000f7cabf000080fb00308e8800f8cabf0025
:10d940000080fb00408e8800f9cabf000080fb0009
:10d95000508e8800facabf000080fb00608e8800ed
:10d96000fbcabf000080fb00708e8800fccabf00ad
:10d970000080fb00808e8800fdcabf000080fb0095
:10d98000908e8800fecabf000080fb00a08e880039
:10d99000ffcabf000080fb00b08e880000cbbf0034
:10d9a0000080fb00c08e880001cbbf000080fb0020
:10d9b000d08e880002cbbf000080fb00e08e880084
:10d9c00003cbbf000080fb00f08e880004cbbf00bb
:10d9d0000080fb00008f880005cbbf000080fb00ab
:10d9e000108f880006cbbf000080fb00208f8800ce
:10d9f00007cbbf000080fb00308f88000080fa005a
:10da0000000006000600fa001007980021079800a1
:10da100010c0b300104798000040eb00004f7800a2
:10da20000040eb00004f7800090037001e80fb002b
:10da3000610829004300dd0066004000e0807800b6
:10da40001e009000808f5000040032001e4fe8003e
:10da500070c7b3009e4f1000f4ff36001e80fb001d
:10da6000610829004300dd00e08078002e0090006e
:10da7000808f5000020036000040eb0010479800f5
:10da80001e80fb00610829004300dd000080e800e3
:10da9000e08078002e009000808f5000020031005e
:10daa0000040eb00104798001e409000e14f5000ee
:10dab00008003a001e80fb00610829004300dd00d9
:10dac0006400400060807800ae009000261a0700d5
:10dad000111307001e4090000080fb000080fa0038
:10dae000000006000200fa000000eb00000f7800c2
:10daf00001ff07000000eb00000f78001c0037005a
:10db00001e0178009e007800a027210000804000c0
:10db1000104078000080fb00c801dd008200410059
:10db20008018210000804000030878009e017800e2
:10db30001e00780080004000801821000080400016
:10db4000100178009e007800002c21000080400029
:10db5000104078000080fb000001410083804100fc
:10db60008018210000804000020878001e0fe800a5
:10db7000500420009e0f1000e1ff36000080fa00e4
:10db8000000006000200fa000000eb00000f780021
:10db9000d9fe07000000eb00000f78001c003700e2
:10dba0001e0178009e007800603021000080400057
:10dbb000104078000080fb00c801dd0082004100b9
:10dbc0008018210000804000030878009e01780042
:10dbd0001e00780080004000801821000080400076
:10dbe000100178009e007800c034210000804000c1
:10dbf000104078000080fb0000014100838041005c
:10dc00008018210000804000020878001e0fe80004
:10dc1000500420009e0f1000e1ff36000080fa0043
:10dc2000000006000000fa00b3fe070050d6bf0057
:10dc30000080fb00408c88004fd6bf000080fb00b6
:10dc4000508c880051d6bf000080fb00608c88009b
:10dc500052d6bf000080fb00708c880053d6bf00f6
:10dc60000080fb00808c880054d6bf000080fb0041
:10dc7000908c88000080fa00000006000800fa007e
:10dc80002007980031079800ae00900080f32f0025
:10dc900000804000100798000040eb0010479800fb
:10dca00010c0b300004f78001e00900062442900ad
:10dcb0006300b900604079008080fb003e00900066
:10dcc000808f5000020036000040eb00004f7800cb
:10dcd0001e009000624429006300b9000000e800c3
:10dce000604079008080fb003e009000808f5000f3
:10dcf000020031000040eb00004f78001e04e000fd
:10dd00000a0032003e009000e31c07001047980014
:10dd10001e009000624429006300b9000080e80002
:10dd2000604079009e409000731c07001e80fb003d
:10dd30000080fa00000006000a00fa003007980090
:10dd400041079800be009000c0e02f000080400016
:10dd50002007980010c0b300204798000040eb0057
:10dd6000104798000040eb00004f78004e009000f4
:10dd70004800de00104798004e009000004f7800e9
:10dd80001e409000f74f5000020036000040eb00ac
:10dd900020479800b0c3b3009e4f10000200360029
:10dda0000040eb00204798002e409000e14f5000cb
:10ddb0000a003a001e4090008080fb002e00900078
:10ddc000e00bb000451907009e80fb002e0090007c
:10ddd0004010b000411907004f1207002e4090007c
:10dde0000080fb000080fa00000006000a00fa0034
:10ddf0003007980041079800be00900080da2f009d
:10de0000008040002007980010c0b3002047980011
:10de10000040eb00104798000040eb00004f7800f6
:10de20004e0090004800de00104798004e00900021
:10de3000004f78001e409000e94f5000020036006d
:10de40000040eb002047980040c6b3009e4f1000f2
:10de5000020036000040eb00204798002e40900062
:10de6000e14f50000a003a001e4090008080fb0005
:10de70002e009000a014b000181907009e80fb002f
:10de80002e0090000019b00014190700221207009c
:10de90002e4090000080fb000080fa000000060089
:10dea0000200fa00000f78001e0078004019880078
:10deb00021e3a800540107002023a90020c3bf00cc
:10dec000614060000004e000fcff32000080fa00c6
:10ded000000006000000fa00c0002000f0ff07006c
:10dee000001880007053880021e3a9000080fa0028
:10def000000006000000fa00d0002000e8ff070044
:10df0000001880005053880021e3a9000080fa0027
:10df1000000006000000fa00e0002000e0ff07001b
:10df2000001880004053880021e3a9000080fa0017
:10df3000000006000000fa000000eb0030538800eb
:10df40000080fa00000006000000fa000000eb006c
:10df5000205388000080fa00000006000000fa004c
:10df6000f0002000ceff070000188000105388004a
:10df700021e3a9000080fa00000006000000fa007a
:10df800010002000c6ff0700001880000053880022
:10df900021e3a9000080fa00000006000000fa005a
:10dfa00020002000beff070000188000f05288000b
:10dfb00021e3a9000080fa00000006000000fa003a
:10dfc000a0002000b6ff070000188000805f8800d6
:10dfd00021e3a9000080fa00000006000000fa001a
:10dfe00090002000aeff07000018800060538800fa
:10dff00021e3a9000080fa00000006000000fa00fa
:10e00000b0002000a6ff07000018800080538800a1
:10e0100021e3a9000080fa00000006000000fa00d9
:10e02000000000000080fa00000006000000fa0076
:10e0300000000000000000000000000000000000e0
:10e04000000000000080fa00000006000000fa0056
:10e0500000000000000000000000000000000000c0
:10e0600000000000000000000000000000000000b0
:10e0700000000000000000000080fa000000060020
:10e080000000fa0000000000000000000000000096
:10e090000000000000000000000000000000000080
:10e0a0000000000000000000000000000000000070
:10e0b0000000000000000000000000000000000060
:10e0c0000000000000000000000000000000000050
:10e0d000000000000080fa00000006000000fa00c6
:10e0e0000000000000000000000000000000000030
:10e0f0000000000000000000000000000000000020
:10e10000000000000000000000000000000000000f
:10e1100000000000000000000000000000000000ff
:10e400000080fa00000006000000fa0033ff070059
:10e4100032ff070031ff070030ff07002fff070022
:10e420002eff07002dff07002cff07002bff070022
:10e430002aff07000080fa00000006000000fa0032
:10e440000040eb0096ecb70096ccbf000040e8001f
:10e4500096ecb70021ff070020ff07001fff070011
:10e460001eff07001dff070061c9200091407800d2
:10e4700030c6b30080cf5000f3ff36000080fa00b2
:10e48000000006000000fa000040eb0096ecb70028
:10e4900096ccbf000040e80096ecb7000fff0700e5
:10e4a0000eff07000dff07000cff07000bff070022
:10e4b00061c920009140780070ccb30080cf50003b
:10e4c000f3ff36000080fa00000006000000fa00aa
:10e4d0000040eb0097ecb70097ccbf000040e8008d
:10e4e00097ecb700e7ff070097ccbf00f84f50004c
:10e4f000f9ff36000080fa00000006000000fa0074
:10e500000060fe00f1ff07000060fe00efff070063
:10e510000060fe00edff07000060fe00ebff07005b
:10e520000080fa00000006000000fa000000eb0086
:10e530001016880000d52900001688000000eb00a6
:10e54000101688000000eb004016880070fc2f00b9
:10e55000301688000000eb00401688000000eb0039
:10e560007016880070ff2900601688000000eb001c
:10e57000701688000000eb00a0168800003c210007
:10e58000901688000000eb00a01688000000eb0049
:10e59000d0168800e0f72f00c01688000000eb00be
:10e5a000d01688000000eb000017880040e12c0026
:10e5b000f01688000000eb00001788000000eb0058
:10e5c0003017880010eb2a00201788000000eb00ad
:10e5d000301788000000eb00203a8800e00020009f
:10e5e000303a88000000eb00200888000000eb00b3
:10e5f000800888000000eb00900888000000eb0015
:10e60000f00888000000eb00000988000000eb0023
:10e61000600988000000eb00700988000000eb0032
:10e62000d00988000000eb00e00988000000eb0042
:10e63000200c88000000eb00500c88000000eb006c
:10e64000800c88000000eb00b00c88000000eb009c
:10e65000e00c88000000eb00100d88000000eb00cb
:10e66000400d88000000eb00700d8800411820006c
:10e670009140780080cfb30000c0600084e1b70013
:10e680000000eb00100c88000000eb00000c88007c
:10e690008461a900411820009140780080cfb30028
:10e6a00000c060006040b30084e1b700a118200002
:10e6b0009140780080cfb30000c060008ae1b700cd
:10e6c0000000eb00400c88000000eb00300c8800dc
:10e6d0008a61a900a11820009140780080cfb30082
:10e6e00000c060006040b3008ae1b700011920005b
:10e6f0009140780080cfb30000c0600090e1b70087
:10e700000000eb00700c88000000eb00600c88003b
:10e710009061a900011920009140780080cfb300da
:10e7200000c060006040b30090e1b70061192000b4
:10e730009140780080cfb30000c0600096e1b70040
:10e740000000eb00a00c88000000eb00900c88009b
:10e750009661a900611920009140780080cfb30034
:10e7600000c060006040b30096e1b700c11920000e
:10e770009140780080cfb30000c060009ce1b700fa
:10e780000000eb00d00c88000000eb00c00c8800fb
:10e790009c61a900c11920009140780080cfb3008e
:10e7a00000c060006040b3009ce1b700211a200067
:10e7b0009140780080cfb30000c06000a2e1b700b4
:10e7c0000000eb00000d88000000eb00f00c88005a
:10e7d000a261a900211a20009140780080cfb300e7
:10e7e00000c060006040b300a2e1b700811a2000c1
:10e7f0009140780080cfb30000c06000a8e1b7006e
:10e800000000eb00300d88000000eb00200d8800b8
:10e81000a861a900811a20009140780080cfb30040
:10e8200000c060006040b300a8e1b700e11a20001a
:10e830009140780080cfb30000c06000aee1b70027
:10e840000000eb00600d88000000eb00500d880018
:10e85000ae61a900e11a20009140780080cfb3009a
:10e8600000c06000aee1b70011e1a9001021a900cd
:10e8700010c1a9000111200091407800f0ccb30034
:10e8800000c060000044a00010e1b7000000eb00f1
:10e8900030088800701020006008880011e1a8008e
:10e8a00005e1a9000421a90004c1a900411020002c
:10e8b00091407800f0ccb30000c060000044a0009c
:10e8c00004e1b7000000eb000008880010272000da
:10e8d0001008880005e1a800f0fe2f0050198800fc
:10e8e000901f200060198800404020000019880017
:10e8f0000000eb0010198800f003200020198800a8
:10e900000000eb00901988000000eb00301988002f
:10e910000000eb00401988000000eb00701988002f
:10e920000000eb00801988000000eb000011880057
:10e930000000eb0010118800000420004011880046
:10e9400021e2a8002342a8000000eb00801188000b
:10e950000000eb009011880000042000c011880026
:10e9600031e2a8003342a80081e0a900510a20004a
:10e970009140780000c7b30000c07000a5e0b70068
:10e980008460a9009460a8000080fa0000000600de
:10e990003600f800809fbe00829fbe00849fbe00ac
:10e9a000869fbe000200fa008460a900dac2bf00a0
:10e9b00001c8b300014060000004e00001003a001b
:10e9c00056f40700d05880000000e800d0588800b6
:10e9d000d1588000f0312000808f50003b0136007c
:10e9e0000000eb00d0588800c09380000000e000d9
:10e9f00003003200c09380000000e900c09388004b
:10ea00006bcbbf000040e8006bebb700b1b6200055
:10ea10009140780030c6b30080cf5000020036002d
:10ea200040c6b3006bebb70089cbbf000040e800e5
:10ea300089ebb70089cbbf00e64f400002003600eb
:10ea4000a0cfb30089ebb700b0cbbf000040e80017
:10ea5000b0ebb700b0cbbf00e64f4000020036007d
:10ea6000a0cfb300b0ebb700e7cbbf000040e80099
:10ea7000e7ebb700e7cbbf00e64f400002003600ef
:10ea8000a0cfb300e7ebb700c8d5bf000040e80057
:10ea9000c8f5b700c8d5bf00e64f400002003600f9
:10eaa000a0cfb300c8f5b700a06080000000e80068
:10eab000a0608800a1608000b0608000808f50005e
:10eac00002003e00d542a80005003700a16080008a
:10ead000b0608000808f500001003600d542a90050
:10eae000a1608000c0608000808f5000020036006e
:10eaf0000000eb00a0608800d06080000000e8000b
:10eb0000d0608800d1608000e0608000808f50007d
:10eb100002003e00d562a80005003700d1608000e9
:10eb2000e0608000808f500001003600d562a900af
:10eb3000d1608000f0608000808f500002003600bd
:10eb40000000eb00d060880034ccbf000040e8003b
:10eb500034ecb70034ccbf00e64f40000200360072
:10eb6000a0cfb30034ecb70052ccbf000040e800a7
:10eb700052ecb70052ccbf00e64f40000200360016
:10eb8000a0cfb30052ecb700d9cbbf000040e800e3
:10eb9000d9ebb700d9cbbf00e64f400002003600ea
:10eba000a0cfb300d9ebb70075ccbf008040eb001d
:10ebb000014f78000004e00002003a0010c0b300ea
:10ebc000004f78001e40780075ecb70076ccbf008f
:10ebd0000040e80076ecb70076ccbf00e64f40007e
:10ebe000020036000040eb0076ecb70077ccbf00a7
:10ebf000e14f50000e003a0078ccbf000040e80022
:10ec000078ecb70078ccbf00ea4f500002003a0021
:10ec100079ccbf007aecb70078ccbf00e64f40005b
:10ec200005003600a0cfb30078ecb7000200370033
:10ec30000040eb0078ecb7007eccbf00e14f500005
:10ec400004003a007fccbf000040e8007fecb70032
:10ec5000020037000040eb007fecb7007fccbf0024
:10ec6000fe4f500010003600cfc2bf000080fb00f6
:10ec70004500de000004a2006140600061406000c9
:10ec800061406000614060004501dd00f12c200022
:10ec900091407800f0cdb30000c0600002407000e9
:10eca000cfe2b7002a0037007bccbf000004e000b1
:10ecb00005003a007cccbf000004e00002003a00ee
:10ecc000cfa2a900220037007bccbf00e34f500049
:10ecd00002003e00cfa2a8001d0037007bccbf0081
:10ece000e64f500002003e00cfa2a90018003700f6
:10ecf0007bccbf00e94f500002003e00cfa2a8002d
:10ed0000130037007bccbf00ec4f500002003e00e8
:10ed1000cfa2a9000e0037007bccbf00ef4f500000
:10ed200002003e00cfa2a800090037007bccbf0044
:10ed3000f24f500002003e00cfa2a90004003700ad
:10ed40007bccbf00f54f500001003e00cfa2a800d1
:10ed50007bccbf000004e000030032007bccbf008e
:10ed60000040e9007becb70079cbbf000040e80031
:10ed700079ebb70091b720009140780060c9b300eb
:10ed800080cf5000420036000040eb0079ebb70026
:10ed9000b3cbbf000040e800b3ebb700b3cbbf007c
:10eda000e64f400002003600a0cfb300b3ebb7003f
:10edb0007acbbf000040e8007aebb7007acbbf0007
:10edc000e64f400002003600a0cfb3007aebb70058
:10edd000dbcbbf000040e800dbebb700dbcbbf00c4
:10ede000e64f400002003600a0cfb300dbebb700d7
:10edf0008bcbbf000040e8008bebb7008bcbbf0094
:10ee0000e64f400002003600a0cfb3008bebb70006
:10ee100090cbbf000040e80090ebb70090cbbf0064
:10ee2000e64f400002003600a0cfb30090ebb700e1
:10ee3000d4cbbf000040e800d4ebb700d4cbbf0078
:10ee4000e64f400002003600a0cfb300d4ebb7007d
:10ee5000dacbbf000040e800daebb700dacbbf0046
:10ee6000e64f400002003600a0cfb300daebb70057
:10ee7000decbbf000040e800deebb700decbbf001a
:10ee8000e64f400002003600a0cfb300deebb70033
:10ee9000e0c2bf000080fb000000d1000004a2001f
:10eea000614060006140600061406000614060005e
:10eeb00000414000012e200091407800d0cfb300e7
:10eec00000c0600002407000e0e2b7000080fa007d
:10eed0004f03be004f02be004f01be004f00be00f8
:10eee0003600f900004006000600fa00404798008e
:10eef000514798004e4090000080fb00100798009a
:10ef00001e0090004800dd00100798005e40900051
:10ef10000080fb00000f78001e0090001e004000e3
:10ef2000100798001e0090000080fa000000060004
:10ef30000400fa00100798001e0090004800de0050
:10ef4000000f78001e0078001cebb7001e00780050
:10ef50004800dd00000f78001e0090001e005000e9
:10ef6000100798001e0090001debb7000080fa000b
:10ef7000000006000200fa00000f78000000eb001d
:10ef8000205488000040eb0086eab700205480003f
:10ef9000a1c2290000004000608078009e0f500050
:10efa0000a003600205480000000e8002054880049
:10efb00021548000803e2000808f500005003600e4
:10efc00010c0b30086eab7000200370010c0b300db
:10efd00086eab70086cabf000004e000ebff3200fb
:10efe000205480000080fa00000006000200fa00b1
:10eff000000f78000000eb00205488000040eb0078
:10f0000086eab700205480008145290000004000b6
:10f01000608078009e0f50000a0036002054800067
:10f020000000e8002054880021548000803e200029
:10f03000808f50000500360010c0b30086eab7008c
:10f040000200370010c0b30086eab70086cabf00ce
:10f050000004e000ebff3200205480000080fa0042
:10f06000000006000200fa00000f78000000eb002c
:10f07000205488000040eb0086eab700205480004e
:10f08000c13f2a0000004000608078009e0f5000c1
:10f090000a003100205480000000e800205488005d
:10f0a0002154800040062000808f5000050036006b
:10f0b00010c0b30086eab7000200370010c0b300ea
:10f0c00086eab70086cabf000004e000ebff32000a
:10f0d000205480000080fa00000006000000fa00c2
:10f0e0000040eb0016ebb700e102a9000040eb0086
:10f0f00078ebb7000080fa00000006000000fa007c
:10f1000087cabf000040e80087eab70087cabf008f
:10f11000e14f500014003a00a0fb0700f1528000bc
:10f1200090538000808f5000040036009053800080
:10f130000000e8009053880007003700f15280007b
:10f1400090538000808f5000030031009053800066
:10f150000000e900905388009053800085ff07006d
:10f1600040548800f100370087cabf00e24f5000ca
:10f1700014003a0081fb070001538000a053800077
:10f18000808f500004003600a05380000000e8008b
:10f19000a05388000700370001538000a05380006f
:10f1a000808f500003003100a05380000000e90070
:10f1b000a0538800a05380006eff070050548800c1
:10f1c000da00370087cabf00e34f50001b003a0047
:10f1d00062fb070011538000b0538000808f500005
:10f1e00004003600b05380000000e800b0538800ef
:10f1f0000700370011538000b0538000808f50000b
:10f2000003003100b05380000000e900b0538800d3
:10f21000f9cabf00e14f500004003a00b05380002b
:10f2200054ff0700a0548800c0003700b05380008e
:10f2300050ff070060548800bc00370087cabf0039
:10f24000e44f500014003a003ffb070021538000b8
:10f25000c0538000808f500004003600c0538000ef
:10f260000000e800c05388000700370021538000e9
:10f27000c0538000808f500003003100c0538000d5
:10f280000000e900c0538800c053800039ff070028
:10f2900070548800a500370087cabf00e54f5000b2
:10f2a00014003a0023fb070031538000d053800044
:10f2b000808f500004003600d05380000000e8002a
:10f2c000d05388000700370031538000d0538000ae
:10f2d000808f500003003100d05380000000e9000f
:10f2e000d0538800d053800022ff0700805488004c
:10f2f0008e00370087cabf00e64f50001b003a005f
:10f3000004fb070041538000e0538000808f5000d1
:10f3100004003600e05380000000e800e05388005d
:10f320000700370041538000e0538000808f500079
:10f3300003003100e05380000000e900e053880042
:10f34000f9cabf00e14f500004003a00e0538000ca
:10f3500008ff0700c054880074003700e0538000a5
:10f3600004ff0700905488007000370087cabf0070
:10f37000e74f50001b003a00defa070051538000af
:10f38000f0538000808f500004003600f05380005e
:10f390000000e800f0538800070037005153800058
:10f3a000f0538000808f500003003100f053800044
:10f3b0000000e900f0538800f9cabf00e14f500097
:10f3c00004003a00f0538000eafe07006054880011
:10f3d00056003700f0538000e6fe0700a054880076
:10f3e0005200370087cabf00e84f50001b003a00a8
:10f3f000b8fa07007153800010548000808f5000cd
:10f4000004003600105480000000e800105488000a
:10f41000070037007153800010548000808f500027
:10f4200003003100105480000000e90010548800ef
:10f43000f9cabf00e14f500004003a0010548000a8
:10f44000ccfe07009054880038003700105480002c
:10f45000c8fe0700c05488003400370087cabf00c8
:10f46000e94f500014003a00d4fa0700815f800091
:10f47000905f8000808f500004003600905f800015
:10f480000000e800905f880007003700815f80007f
:10f49000905f8000808f500003003100905f8000fb
:10f4a0000000e900905f8800905f8000edfe07009b
:10f4b000eeebb7001d00370087cabf00ea4f5000cf
:10f4c00018003a000040eb0087eab700cbfa0700cb
:10f4d0008153800050648000808f5000040036000b
:10f4e000506480000000e800506488000700370086
:10f4f0008153800050648000808f500003003100f1
:10f50000506480000000e90050648800506480006e
:10f5100032022000110009000280d80060648800d7
:10f52000020037000040eb0087eab700d9cbbf00ec
:10f53000e44f50002e0036000040eb00d9ebb7003e
:10f54000a6fa07006153800000548000808f5000ad
:10f5500004003600005480000000e80000548800d9
:10f56000070037006153800000548000808f5000f6
:10f5700003003100005480000000e90000548800be
:10f58000dacbbf00e34f500002003a006053800026
:10f59000005488000054800076fe0700b0548800b4
:10f5a0009ecbbf000080fb00005d8800015d8000f5
:10f5b0002003200001005000005d8800b15480004d
:10f5c000005d8000808f500004003600b054800041
:10f5d000015d800001005000b0548800dacbbf000c
:10f5e000e24f500002003e00401f2000b05488004f
:10f5f0000080fa00000006000000fa000040eb0066
:10f6000011ecb7001154800030062000808f5000ac
:10f6100002003e0010c0b30011ecb700115480008e
:10f62000e0f62000808f50000200360010c0b300ca
:10f6300011ecb700f153800030062000808f50009d
:10f6400002003e0010c0b30011ecb700f15380007f
:10f65000e0f62000808f50000200360010c0b3009a
:10f6600011ecb700e153800030062000808f50007d
:10f6700002003e0010c0b30011ecb700e15380005f
:10f68000e0f62000808f50000200360010c0b3006a
:10f6900011ecb700b153800030062000808f50007d
:10f6a00002003e0010c0b30011ecb700b15380005f
:10f6b000e0f62000808f50000200360010c0b3003a
:10f6c00011ecb70011ccbf00e14f500004003a002c
:10f6d000906080000000e800906088000200370021
:10f6e0000000eb009060880091608000803e200068
:10f6f000808f500005003600a0ff2f00906088002a
:10f7000010c0b30010ecb700020037000040eb005f
:10f7100010ecb7000080fa00000006000000fa00bc
:10f7200019cbbf000080fb00505f8800515f800054
:10f73000f00f20000088b900505f8800505f800003
:10f7400042062000110009000280d800505f8800a6
:10f75000515f8000f00f2000808f500002003600c3
:10f76000f00f2000505f880018cbbf000080fb0026
:10f77000605f8800615f8000f00f20000088b900a2
:10f78000605f8800605f8000420620001100090071
:10f790000280d800605f8800615f8000f00f200069
:10f7a000808f500002003600f00f2000605f88005c
:10f7b00019cbbf00d8ebb70018cbbf00d7ebb70011
:10f7c0000080fa00000006000000fa0008cbbf002d
:10f7d0000004e00005003a0040c0b300e4eab700ce
:10f7e00040c0b300e5eab7001f00370008cbbf00f8
:10f7f000e14f500005003a0010c0b300e4eab70042
:10f8000010c0b300e5eab7001700370008cbbf000f
:10f81000e24f500005003a0020c0b300e4eab70010
:10f8200020c0b300e5eab7000f00370008cbbf00e7
:10f83000e34f500005003a0030c0b300e4eab700df
:10f8400030c0b300e5eab7000700370008cbbf00bf
:10f85000e44f500004003a0050c0b300e4eab7009f
:10f8600050c0b300e5eab700cdcabf000004e00015
:10f87000030035006dccbf00e14f500004003a009a
:10f8800040c0b300e4eab70040c0b300e5eab70007
:10f8900041ae20009140780069cbbf0080cf50007e
:10f8a0000f003a00d1ad2000914078006ccbbf0032
:10f8b00080cf50000a003a00e1ad2000914078006e
:10f8c0006dcbbf0080cf500005003a00f1ad2000a5
:10f8d000914078006ecbbf0080cf500018003200fe
:10f8e000e4cabf00e14f500003003a00ddcabf0088
:10f8f00018ebb70011003700e4cabf00e24f500018
:10f9000003003a00decabf0018ebb7000b00370057
:10f91000e4cabf00e34f500003003a00dfcabf0053
:10f9200018ebb70005003700e4cabf00e54f5000f0
:10f9300002003a0040c6b30018ebb70077ff07009b
:10f9400051ae2000914078006acbbf0080cf5000bc
:10f950000f003a0001ae2000914078006fcbbf004d
:10f9600080cf50000a003a0011ae2000914078008c
:10f9700070cbbf0080cf500005003a0021ae2000c0
:10f980009140780071cbbf0080cf5000180032004a
:10f99000e5cabf00e14f500003003a00e0cabf00d3
:10f9a00019ebb70011003700e5cabf00e24f500065
:10f9b00003003a00e1cabf0019ebb7000b003700a3
:10f9c000e5cabf00e34f500003003a00e2cabf009f
:10f9d00019ebb70005003700e5cabf00e54f50003e
:10f9e00002003a0040c6b30019ebb7004bff070016
:10f9f000e4cabf0069ebb700e5cabf006aebb70015
:10fa0000ddcabf006cebb700decabf006debb7000c
:10fa1000dfcabf006eebb700e0cabf006febb700f4
:10fa2000e1cabf0070ebb700e2cabf0071ebb700dc
:10fa3000ebcabf00e14f500016003a00eccabf000d
:10fa40000080fb00905b8800905b8000c012b000db
:10fa5000905b880051548000905b8000808f500044
:10fa600003003e0010c0b3009debb7000b00370051
:10fa7000905b800021032000808040005054800073
:10fa8000808f500005003e000040eb009debb7006a
:10fa9000020037000040eb009debb700e4cabf0056
:10faa000e44f500003003a00e5cabf00e44f5000a5
:10fab000030032009dcbbf00e14f50000b003a0025
:10fac00010c0b300d3ebb700d4cbbf00e44f50005d
:10fad0000f00360010c0b30098ebb7000040eb00f9
:10fae00017ebb700e1a2a900090037000040eb00c6
:10faf00098ebb70010c0b30017ebb700e1a2a80065
:10fb00000040eb00d3ebb7000040eb00d4ebb700b4
:10fb100017cbbf000004e0000f003a009dcbbf00f0
:10fb2000e14f500002003a00e662a80001003700f1
:10fb3000e662a9000040eb00d6ebb7000040eb0006
:10fb4000d5ebb7000000eb00200d88000000eb00b3
:10fb5000c00c880011003700e662a800d8cbbf00b7
:10fb6000d6ebb700d7cbbf00d5ebb700f9cabf00c3
:10fb7000e14f500005003a00505f8000c00c880043
:10fb8000605f8000200d880004003700505f800017
:10fb9000200d8800605f8000c00c88000080fa00a3
:10fba000000006000000fa00d5cabf000004e00013
:10fbb00066003200decbbf00e34f5000630036002a
:10fbc0000040eb00deebb700d5cabf000080fb00b1
:10fbd000905b8800905b8000c012b000905b880052
:10fbe00091548000905b8000808f500009003100ac
:10fbf00018cbbf00e44f50000300360018cbbf0005
:10fc000000c0e90018ebb70010c0b30003ecb70068
:10fc10002b003700e4cabf00e14f500003003a0058
:10fc2000ddcabf00dfebb70011003700e4cabf0038
:10fc3000e24f500003003a00decabf00dfebb7001e
:10fc40000b003700e4cabf00e34f500003003a0046
:10fc5000dfcabf00dfebb70005003700e4cabf0012
:10fc6000e54f500002003a0040c6b300dfebb7009a
:10fc700081b1200091407800dfcbbf0080cf5000e1
:10fc80000d00310018cbbf0000c0e80018ebb70032
:10fc900081b1200091407800dfcbbf0080cf5000c1
:10fca00007003600dfcbbf0018ebb7000040eb00c9
:10fcb00003ecb700020037000040eb0003ecb70094
:10fcc000e5cabf00e14f500003003a00e0cabf00a0
:10fcd00019ebb70011003700e5cabf00e24f500032
:10fce00003003a00e1cabf0019ebb7000b00370070
:10fcf000e5cabf00e34f500003003a00e2cabf006c
:10fd000019ebb70005003700e5cabf00e54f50000a
:10fd100002003a0040c6b30019ebb70003ccbf00a5
:10fd2000e14f50000600320003ccbf000004e000a9
:10fd300004003a0004ccbf00e14f500001003a003b
:10fd400076fe070003ccbf0004ecb700d5cabf00a5
:10fd50000004e00002003a000040eb0003ecb700b2
:10fd6000d5cabf000004e00008003a00e0cbbf00a5
:10fd70000004e0000500320000c0eb0069ebb700b2
:10fd800000c0eb006aebb7008ffe0700d5cabf00ca
:10fd9000e0ebb7000080fa00000006000000fa0067
:10fda000f4cabf00e14f500026013a00a054800081
:10fdb000b05f8800b15f800040ed2f000080400000
:10fdc000b05f8800f5cabf000080fb00c05f8800fc
